{"abi":[{"type":"constructor","inputs":[{"name":"_randomnessSenderProxy","type":"address","internalType":"address"}],"stateMutability":"nonpayable"},{"type":"receive","stateMutability":"payable"},{"type":"function","name":"BASE_MULT_WAD","inputs":[],"outputs":[{"name":"","type":"uint256","internalType":"uint256"}],"stateMutability":"view"},{"type":"function","name":"CAP_MULT_WAD","inputs":[],"outputs":[{"name":"","type":"uint256","internalType":"uint256"}],"stateMutability":"view"},{"type":"function","name":"HOUSE_FEE_BPS","inputs":[],"outputs":[{"name":"","type":"uint16","internalType":"uint16"}],"stateMutability":"view"},{"type":"function","name":"MAX_COLS","inputs":[],"outputs":[{"name":"","type":"uint8","internalType":"uint8"}],"stateMutability":"view"},{"type":"function","name":"MAX_MULT_X100","inputs":[],"outputs":[{"name":"","type":"uint16","internalType":"uint16"}],"stateMutability":"view"},{"type":"function","name":"MAX_ROWS","inputs":[],"outputs":[{"name":"","type":"uint8","internalType":"uint8"}],"stateMutability":"view"},{"type":"function","name":"MAX_STAKE","inputs":[],"outputs":[{"name":"","type":"uint256","internalType":"uint256"}],"stateMutability":"view"},{"type":"function","name":"ONE","inputs":[],"outputs":[{"name":"","type":"uint256","internalType":"uint256"}],"stateMutability":"view"},{"type":"function","name":"acceptOwnership","inputs":[],"outputs":[],"stateMutability":"nonpayable"},{"type":"function","name":"cashOut","inputs":[{"name":"id","type":"uint256","internalType":"uint256"}],"outputs":[],"stateMutability":"nonpayable"},{"type":"function","name":"createRound","inputs":[{"name":"rows","type":"uint8","internalType":"uint8"},{"name":"cols","type":"uint8","internalType":"uint8"},{"name":"bombs","type":"uint8","internalType":"uint8"}],"outputs":[{"name":"id","type":"uint256","internalType":"uint256"}],"stateMutability":"payable"},{"type":"function","name":"createSubscriptionAndFundNative","inputs":[],"outputs":[],"stateMutability":"payable"},{"type":"function","name":"fund","inputs":[],"outputs":[],"stateMutability":"payable"},{"type":"function","name":"getBalance","inputs":[],"outputs":[{"name":"","type":"uint256","internalType":"uint256"}],"stateMutability":"view"},{"type":"function","name":"getRound","inputs":[{"name":"id","type":"uint256","internalType":"uint256"}],"outputs":[{"name":"player","type":"address","internalType":"address"},{"name":"rows","type":"uint8","internalType":"uint8"},{"name":"cols","type":"uint8","internalType":"uint8"},{"name":"bombs","type":"uint8","internalType":"uint8"},{"name":"active","type":"bool","internalType":"bool"},{"name":"settled","type":"bool","internalType":"bool"},{"name":"safeReveals","type":"uint64","internalType":"uint64"},{"name":"stake","type":"uint256","internalType":"uint256"},{"name":"revealedBitmap","type":"uint256","internalType":"uint256"},{"name":"seed","type":"bytes32","internalType":"bytes32"}],"stateMutability":"view"},{"type":"function","name":"isInFlight","inputs":[{"name":"requestId","type":"uint256","internalType":"uint256"}],"outputs":[{"name":"","type":"bool","internalType":"bool"}],"stateMutability":"view"},{"type":"function","name":"isRevealed","inputs":[{"name":"id","type":"uint256","internalType":"uint256"},{"name":"row","type":"uint8","internalType":"uint8"},{"name":"col","type":"uint8","internalType":"uint8"}],"outputs":[{"name":"","type":"bool","internalType":"bool"}],"stateMutability":"view"},{"type":"function","name":"nextId","inputs":[],"outputs":[{"name":"","type":"uint256","internalType":"uint256"}],"stateMutability":"view"},{"type":"function","name":"openTile","inputs":[{"name":"id","type":"uint256","internalType":"uint256"},{"name":"row","type":"uint8","internalType":"uint8"},{"name":"col","type":"uint8","internalType":"uint8"}],"outputs":[],"stateMutability":"nonpayable"},{"type":"function","name":"owner","inputs":[],"outputs":[{"name":"","type":"address","internalType":"address"}],"stateMutability":"view"},{"type":"function","name":"pendingRequestExists","inputs":[{"name":"subId","type":"uint256","internalType":"uint256"}],"outputs":[{"name":"","type":"bool","internalType":"bool"}],"stateMutability":"view"},{"type":"function","name":"quotePayout","inputs":[{"name":"id","type":"uint256","internalType":"uint256"}],"outputs":[{"name":"","type":"uint256","internalType":"uint256"}],"stateMutability":"view"},{"type":"function","name":"quoteVrfFee","inputs":[{"name":"callbackGasLimit","type":"uint32","internalType":"uint32"}],"outputs":[{"name":"","type":"uint256","internalType":"uint256"}],"stateMutability":"view"},{"type":"function","name":"randomnessSender","inputs":[],"outputs":[{"name":"","type":"address","internalType":"contract IRandomnessSender"}],"stateMutability":"view"},{"type":"function","name":"randomnessSenderProxy","inputs":[],"outputs":[{"name":"","type":"address","internalType":"address"}],"stateMutability":"view"},{"type":"function","name":"receiveRandomness","inputs":[{"name":"requestID","type":"uint256","internalType":"uint256"},{"name":"randomness","type":"bytes32","internalType":"bytes32"}],"outputs":[],"stateMutability":"nonpayable"},{"type":"function","name":"requestSeedDirect","inputs":[{"name":"id","type":"uint256","internalType":"uint256"},{"name":"callbackGasLimit","type":"uint32","internalType":"uint32"}],"outputs":[],"stateMutability":"payable"},{"type":"function","name":"requestSeedDirectExact","inputs":[{"name":"id","type":"uint256","internalType":"uint256"},{"name":"callbackGasLimit","type":"uint32","internalType":"uint32"}],"outputs":[],"stateMutability":"payable"},{"type":"function","name":"requestSeedFromTreasury","inputs":[{"name":"id","type":"uint256","internalType":"uint256"},{"name":"callbackGasLimit","type":"uint32","internalType":"uint32"}],"outputs":[],"stateMutability":"nonpayable"},{"type":"function","name":"rounds","inputs":[{"name":"","type":"uint256","internalType":"uint256"}],"outputs":[{"name":"player","type":"address","internalType":"address"},{"name":"rows","type":"uint8","internalType":"uint8"},{"name":"cols","type":"uint8","internalType":"uint8"},{"name":"bombs","type":"uint8","internalType":"uint8"},{"name":"active","type":"bool","internalType":"bool"},{"name":"settled","type":"bool","internalType":"bool"},{"name":"requestId","type":"uint256","internalType":"uint256"},{"name":"safeReveals","type":"uint64","internalType":"uint64"},{"name":"stake","type":"uint256","internalType":"uint256"},{"name":"bombBitmap","type":"uint256","internalType":"uint256"},{"name":"revealedBitmap","type":"uint256","internalType":"uint256"},{"name":"seed","type":"bytes32","internalType":"bytes32"}],"stateMutability":"view"},{"type":"function","name":"setRandomnessSender","inputs":[{"name":"_randomnessSender","type":"address","internalType":"address"}],"outputs":[],"stateMutability":"nonpayable"},{"type":"function","name":"setSubId","inputs":[{"name":"subId","type":"uint256","internalType":"uint256"}],"outputs":[],"stateMutability":"nonpayable"},{"type":"function","name":"subscriptionId","inputs":[],"outputs":[{"name":"","type":"uint256","internalType":"uint256"}],"stateMutability":"view"},{"type":"function","name":"topUpSubscriptionNative","inputs":[],"outputs":[],"stateMutability":"payable"},{"type":"function","name":"transferOwnership","inputs":[{"name":"to","type":"address","internalType":"address"}],"outputs":[],"stateMutability":"nonpayable"},{"type":"function","name":"updateSubscription","inputs":[{"name":"consumers","type":"address[]","internalType":"address[]"}],"outputs":[],"stateMutability":"nonpayable"},{"type":"function","name":"withdraw","inputs":[{"name":"to","type":"address","internalType":"address payable"},{"name":"amount","type":"uint256","internalType":"uint256"}],"outputs":[],"stateMutability":"nonpayable"},{"type":"event","name":"BombHit","inputs":[{"name":"id","type":"uint256","indexed":true,"internalType":"uint256"}],"anonymous":false},{"type":"event","name":"CashedOut","inputs":[{"name":"id","type":"uint256","indexed":true,"internalType":"uint256"},{"name":"player","type":"address","indexed":true,"internalType":"address"},{"name":"amount","type":"uint256","indexed":false,"internalType":"uint256"}],"anonymous":false},{"type":"event","name":"Funded","inputs":[{"name":"sender","type":"address","indexed":true,"internalType":"address"},{"name":"amount","type":"uint256","indexed":false,"internalType":"uint256"}],"anonymous":false},{"type":"event","name":"NewSubscriptionId","inputs":[{"name":"subscriptionId","type":"uint256","indexed":true,"internalType":"uint256"}],"anonymous":false},{"type":"event","name":"OwnershipTransferRequested","inputs":[{"name":"from","type":"address","indexed":true,"internalType":"address"},{"name":"to","type":"address","indexed":true,"internalType":"address"}],"anonymous":false},{"type":"event","name":"OwnershipTransferred","inputs":[{"name":"from","type":"address","indexed":true,"internalType":"address"},{"name":"to","type":"address","indexed":true,"internalType":"address"}],"anonymous":false},{"type":"event","name":"Received","inputs":[{"name":"","type":"address","indexed":false,"internalType":"address"},{"name":"","type":"uint256","indexed":false,"internalType":"uint256"}],"anonymous":false},{"type":"event","name":"RoundCreated","inputs":[{"name":"id","type":"uint256","indexed":true,"internalType":"uint256"},{"name":"player","type":"address","indexed":true,"internalType":"address"},{"name":"rows","type":"uint8","indexed":false,"internalType":"uint8"},{"name":"cols","type":"uint8","indexed":false,"internalType":"uint8"},{"name":"bombs","type":"uint8","indexed":false,"internalType":"uint8"},{"name":"stake","type":"uint256","indexed":false,"internalType":"uint256"}],"anonymous":false},{"type":"event","name":"SeedFulfilled","inputs":[{"name":"id","type":"uint256","indexed":true,"internalType":"uint256"},{"name":"requestId","type":"uint256","indexed":false,"internalType":"uint256"},{"name":"seed","type":"bytes32","indexed":false,"internalType":"bytes32"}],"anonymous":false},{"type":"event","name":"SeedRequested","inputs":[{"name":"id","type":"uint256","indexed":true,"internalType":"uint256"},{"name":"requestId","type":"uint256","indexed":false,"internalType":"uint256"},{"name":"callbackGasLimit","type":"uint32","indexed":false,"internalType":"uint32"},{"name":"feeQuoted","type":"uint256","indexed":false,"internalType":"uint256"}],"anonymous":false},{"type":"event","name":"TileRevealed","inputs":[{"name":"id","type":"uint256","indexed":true,"internalType":"uint256"},{"name":"idx","type":"uint256","indexed":false,"internalType":"uint256"},{"name":"bomb","type":"bool","indexed":false,"internalType":"bool"},{"name":"safeReveals","type":"uint64","indexed":false,"internalType":"uint64"}],"anonymous":false},{"type":"event","name":"Treasure_Funded","inputs":[{"name":"from","type":"address","indexed":true,"internalType":"address"},{"name":"amount","type":"uint256","indexed":false,"internalType":"uint256"}],"anonymous":false},{"type":"event","name":"Treasure_Withdrawn","inputs":[{"name":"to","type":"address","indexed":true,"internalType":"address"},{"name":"amount","type":"uint256","indexed":false,"internalType":"uint256"}],"anonymous":false},{"type":"event","name":"Withdrawn","inputs":[{"name":"recipient","type":"address","indexed":true,"internalType":"address"},{"name":"amount","type":"uint256","indexed":false,"internalType":"uint256"}],"anonymous":false},{"type":"error","name":"ReentrancyGuardReentrantCall","inputs":[]}],"bytecode":{"object":"0x60a060405234801562000010575f80fd5b5060405162002d5e38038062002d5e833981016040819052620000339162000196565b803380805f816200008b5760405162461bcd60e51b815260206004820152601860248201527f43616e6e6f7420736574206f776e657220746f207a65726f000000000000000060448201526064015b60405180910390fd5b5f80546001600160a01b0319166001600160a01b0384811691909117909155811615620000bd57620000bd81620000ec565b5050600280546001600160a01b0319166001600160a01b039485161790555050600160045516608052620001c5565b336001600160a01b03821603620001465760405162461bcd60e51b815260206004820152601760248201527f43616e6e6f74207472616e7366657220746f2073656c66000000000000000000604482015260640162000082565b600180546001600160a01b0319166001600160a01b038381169182179092555f8054604051929316917fed8889f560326eb138920d842192f0eb3dd22b4f139c87a2c57538e05bae12789190a350565b5f60208284031215620001a7575f80fd5b81516001600160a01b0381168114620001be575f80fd5b9392505050565b608051612b5d620002015f395f818161039a015281816110cd015281816116bc015281816118360152818161190f0152611a9e0152612b5d5ff3fe608060405260043610610215575f3560e01c8063809800431161011e578063b60d4288116100a8578063df3fafe81161006d578063df3fafe8146107b4578063e67953ea146103ef578063f2fde38b146107d3578063f3fef3a3146107f2578063f66524f514610811575f80fd5b8063b60d428814610750578063b96dbba714610758578063c2ee3a0814610760578063c98517c51461077b578063cd802c9114610795575f80fd5b80638f1327c0116100ee5780638f1327c0146105f057806393caa3b1146106eb57806394ade90d146106ff5780639ea330bb1461071e578063a26e4f381461073d575f80fd5b80638098004314610483578063842674a8146104a25780638c65c81f146104c15780638da5cb5b146105d4575f80fd5b8063431ac6571161019f5780635c7b79f51161016f5780635c7b79f51461041557806361b8ce8c1461043457806362e0120d146104495780636685166a1461045c57806379ba50971461046f575f80fd5b8063431ac6571461036a578063475da6011461038957806347d641b9146103d4578063581581a0146103ef575f80fd5b80631d2b2afd116101e55780631d2b2afd146102d657806320642998146102de57806327f9d348146102fd57806336bfffed1461031c57806341af6c871461033b575f80fd5b8063011164a61461025557806309c1ba2e1461027657806312065fe01461029e5780631594b256146102b0575f80fd5b366102515760405134815233907fe65e1db0cd30e0dbfef67c35f4134988ec9c79c22a4a2d3862f625bdf14bf22d9060200160405180910390a2005b5f80fd5b348015610260575f80fd5b5061027461026f36600461280a565b61082c565b005b348015610281575f80fd5b5061028b60035481565b6040519081526020015b60405180910390f35b3480156102a9575f80fd5b504761028b565b3480156102bb575f80fd5b506102c35f81565b60405161ffff9091168152602001610295565b6102746108bb565b3480156102e9575f80fd5b5061028b6102f8366004612825565b61095d565b348015610308575f80fd5b5061027461031736600461284c565b610a79565b348015610327575f80fd5b50610274610336366004612885565b610e49565b348015610346575f80fd5b5061035a610355366004612825565b610f48565b6040519015158152602001610295565b348015610375575f80fd5b506102746103843660046128f3565b610fba565b348015610394575f80fd5b506103bc7f000000000000000000000000000000000000000000000000000000000000000081565b6040516001600160a01b039091168152602001610295565b3480156103df575f80fd5b5061028b671bc16d674ec8000081565b3480156103fa575f80fd5b50610403600a81565b60405160ff9091168152602001610295565b348015610420575f80fd5b5061027461042f366004612825565b611022565b34801561043f575f80fd5b5061028b60055481565b610274610457366004612926565b611040565b61028b61046a366004612950565b6111f8565b34801561047a575f80fd5b506102746115bc565b34801561048e575f80fd5b5061027461049d366004612825565b611665565b3480156104ad575f80fd5b5061028b6104bc366004612979565b61169f565b3480156104cc575f80fd5b5061055f6104db366004612825565b600660208190525f918252604090912080546001820154600283015460038401546004850154600586015495909601546001600160a01b0385169660ff600160a01b8704811697600160a81b8804821697600160b01b8104831697600160b81b8204841697600160c01b9092049093169592946001600160401b039091169391908c565b604080516001600160a01b03909d168d5260ff9b8c1660208e0152998b16998c01999099529890961660608a0152931515608089015291151560a088015260c08701526001600160401b031660e086015261010085015261012084015261014083019190915261016082015261018001610295565b3480156105df575f80fd5b505f546001600160a01b03166103bc565b3480156105fb575f80fd5b5061068361060a366004612825565b5f908152600660208190526040909120805460028201546003830154600584015493909401546001600160a01b0383169560ff600160a01b8504811696600160a81b8604821696600160b01b8704831696600160b81b8104841696600160c01b909104909316946001600160401b039093169391929091565b604080516001600160a01b03909b168b5260ff998a1660208c0152978916978a01979097529690941660608801529115156080870152151560a08601526001600160401b031660c085015260e084015261010083019190915261012082015261014001610295565b3480156106f6575f80fd5b506102c360c881565b34801561070a575f80fd5b50610274610719366004612926565b61172d565b348015610729575f80fd5b5061035a61073836600461284c565b6119df565b61027461074b366004612926565b611a11565b610274611b4f565b610274611bc0565b34801561076b575f80fd5b5061028b670de0b6b3a764000081565b348015610786575f80fd5b5061028b662386f26fc1000081565b3480156107a0575f80fd5b5061035a6107af366004612825565b611c07565b3480156107bf575f80fd5b506002546103bc906001600160a01b031681565b3480156107de575f80fd5b506102746107ed36600461280a565b611c38565b3480156107fd575f80fd5b5061027461080c366004612992565b611c49565b34801561081c575f80fd5b5061028b6702c68af0bb14000081565b610834611db6565b6001600160a01b0381166108995760405162461bcd60e51b815260206004820152602160248201527f43616e6e6f7420736574207a65726f20616464726573732061732073656e64656044820152603960f91b60648201526084015b60405180910390fd5b600280546001600160a01b0319166001600160a01b0392909216919091179055565b6003545f036108fa5760405162461bcd60e51b815260206004820152600b60248201526a1cdd58881b9bdd081cd95d60aa1b6044820152606401610890565b60025460035460405163256d573f60e21b815260048101919091526001600160a01b03909116906395b55cfc9034906024015b5f604051808303818588803b158015610944575f80fd5b505af1158015610956573d5f803e3d5ffd5b5050505050565b5f8181526006602052604081208054600160b81b900460ff16158061098a57508054600160c01b900460ff165b1561099757505f92915050565b80545f9060ff600160b01b82048116916109c291600160a81b8204811691600160a01b9004166129d0565b6109cc91906129e7565b9050805f036109de57505f9392505050565b60028201545f9082906001600160401b0316610a0a6702c68af0bb140000671bc16d674ec800006129e7565b610a1491906129d0565b610a1e9190612a0e565b610a30906702c68af0bb140000612a21565b9050671bc16d674ec80000811115610a4d5750671bc16d674ec800005b670de0b6b3a7640000818460030154610a6691906129d0565b610a709190612a0e565b95945050505050565b610a81611e0a565b5f83815260066020526040902080546001600160a01b03163314610ab75760405162461bcd60e51b815260040161089090612a34565b8054600160b81b900460ff168015610ad857508054600160c01b900460ff16155b610b185760405162461bcd60e51b81526020600482015260116024820152701b9bdd081c9958591e4bdcd95d1d1b1959607a1b6044820152606401610890565b5f610b24828585611e34565b60058301549091506001821b1615610b685760405162461bcd60e51b8152602060048201526007602482015266616c726561647960c81b6044820152606401610890565b6005820180546001831b90811790915560048301541615801590610c2157825461ffff60b81b1916600160c01b1783555f6003840155600283015460408051848152600160208201526001600160401b039092169082015286907ff5a0678da4f5280b9f0d664a4660e005eed26b78b28a94da18594a00dab859899060600160405180910390a260405186907fd847871eea545fc13651718506cd0252da71e73ee613463e978ab6beaa4a98f8905f90a2505050610e3a565b600283018054600191905f90610c419084906001600160401b0316612a5c565b82546101009290920a6001600160401b038181021990931691831602179091556002850154604080518681525f602082015291909216918101919091528791507ff5a0678da4f5280b9f0d664a4660e005eed26b78b28a94da18594a00dab859899060600160405180910390a25f610cb88761095d565b90505f670de0b6b3a7640000671bc16d674ec800008660030154610cdc91906129d0565b610ce69190612a0e565b9050808210610ddd578454600160c01b61ffff60b81b1982161786556040515f916001600160a01b03169084908381818185875af1925050503d805f8114610d49576040519150601f19603f3d011682016040523d82523d5f602084013e610d4e565b606091505b5050905080610d8f5760405162461bcd60e51b815260206004820152600d60248201526c1c185e5bdd5d0819985a5b1959609a1b6044820152606401610890565b85546040518481526001600160a01b03909116908a907f5f040b58ca1b9d6d03d1b59e50b83373851a6b99eb754784360306f96ace92639060200160405180910390a3505050505050610e3a565b84545f9060ff600160b01b8204811691610e0891600160a81b8204811691600160a01b9004166129d0565b610e1291906129e7565b60028701549091506001600160401b0316819003610e3357610e3389611ec4565b5050505050505b610e446001600455565b505050565b610e51611db6565b6003545f03610e925760405162461bcd60e51b815260206004820152600d60248201526c1cdd589251081b9bdd081cd95d609a1b6044820152606401610890565b5f5b81811015610e44576002546003546001600160a01b039091169063bec4c08c90858585818110610ec657610ec6612a83565b9050602002016020810190610edb919061280a565b6040516001600160e01b031960e085901b16815260048101929092526001600160a01b031660248201526044015f604051808303815f87803b158015610f1f575f80fd5b505af1158015610f31573d5f803e3d5ffd5b505050508080610f4090612a97565b915050610e94565b6002546040516341af6c8760e01b8152600481018390525f916001600160a01b0316906341af6c87906024015b602060405180830381865afa158015610f90573d5f803e3d5ffd5b505050506040513d601f19601f82011682018060405250810190610fb49190612aaf565b92915050565b6002546001600160a01b031633146110145760405162461bcd60e51b815260206004820152601e60248201527f4f6e6c792072616e646f6d6e65737353656e6465722063616e2063616c6c00006044820152606401610890565b61101e828261206c565b5050565b61102a611e0a565b61103381611ec4565b61103d6001600455565b50565b611048611e0a565b5f611052836121f9565b8054909150600160b81b900460ff1615801561107057506001810154155b6110b05760405162461bcd60e51b8152602060048201526011602482015270185b1c9958591e481c995c5d595cdd1959607a1b6044820152606401610890565b604051634b16093560e01b815263ffffffff831660048201525f907f00000000000000000000000000000000000000000000000000000000000000006001600160a01b031690634b16093590602401602060405180830381865afa15801561111a573d5f803e3d5ffd5b505050506040513d601f19601f8201168201806040525081019061113e9190612ace565b90508034146111795760405162461bcd60e51b81526020600482015260076024820152666261642066656560c81b6044820152606401610890565b5f61118384612277565b50600184018190555f81815260076020908152604091829020889055815183815263ffffffff88169181019190915290810184905290915085907f87214fc60bee9c8831290ab39a132eec041d8e7fa0ddf7e8e764827376f66d44906060015b60405180910390a250505061101e6001600455565b5f611201611e0a565b5f8460ff1611801561121557505f8360ff16115b80156112255750600a60ff851611155b80156112355750600a60ff841611155b61126c5760405162461bcd60e51b81526020600482015260086024820152676261642064696d7360c01b6044820152606401610890565b5f61127d60ff8086169087166129d0565b90505f8360ff161180156112935750808360ff16105b6112cb5760405162461bcd60e51b815260206004820152600960248201526862616420626f6d627360b81b6044820152606401610890565b5f341180156112e15750662386f26fc100003411155b6113195760405162461bcd60e51b8152602060048201526009602482015268626164207374616b6560b81b6044820152606401610890565b5f606461132760c8346129d0565b6113319190612a0e565b90508047101561137c5760405162461bcd60e51b8152602060048201526016602482015275696e73756666696369656e74206c697175696469747960501b6044820152606401610890565b60058054905f61138b83612a97565b919050559250604051806101800160405280336001600160a01b031681526020018760ff1681526020018660ff1681526020018560ff1681526020015f151581526020015f151581526020015f81526020015f6001600160401b031681526020013481526020015f81526020015f81526020015f801b81525060065f8581526020019081526020015f205f820151815f015f6101000a8154816001600160a01b0302191690836001600160a01b031602179055506020820151815f0160146101000a81548160ff021916908360ff1602179055506040820151815f0160156101000a81548160ff021916908360ff1602179055506060820151815f0160166101000a81548160ff021916908360ff1602179055506080820151815f0160176101000a81548160ff02191690831515021790555060a0820151815f0160186101000a81548160ff02191690831515021790555060c0820151816001015560e0820151816002015f6101000a8154816001600160401b0302191690836001600160401b031602179055506101008201518160030155610120820151816004015561014082015181600501556101608201518160060155905050336001600160a01b0316837f1479062c23ab7de5df04a4ef6be613e15b1b1801f1327ace79420fc5e38c8288888888346040516115a1949392919060ff9485168152928416602084015292166040820152606081019190915260800190565b60405180910390a350506115b56001600455565b9392505050565b6001546001600160a01b0316331461160f5760405162461bcd60e51b815260206004820152601660248201527526bab9ba10313290383937b837b9b2b21037bbb732b960511b6044820152606401610890565b5f8054336001600160a01b0319808316821784556001805490911690556040516001600160a01b0390921692909183917f8be0079c531659141344cd1fd0a4f28419497f9722a3daafe3b4186f6b6457e091a350565b61166d611db6565b600381905560405181907f5f479ac993925efae23839aa1c813b6ecb2fe1bbd14dc78295ab267d2fca4368905f90a250565b604051634b16093560e01b815263ffffffff821660048201525f907f00000000000000000000000000000000000000000000000000000000000000006001600160a01b031690634b16093590602401602060405180830381865afa158015611709573d5f803e3d5ffd5b505050506040513d601f19601f82011682018060405250810190610fb49190612ace565b611735611e0a565b5f82815260066020526040902080546001600160a01b031633148061176357505f546001600160a01b031633145b61179d5760405162461bcd60e51b815260206004820152600b60248201526a1b9bdd08185b1b1bddd95960aa1b6044820152606401610890565b8054600160b81b900460ff161580156117bf57508054600160c01b900460ff16155b80156117cd57506001810154155b6118195760405162461bcd60e51b815260206004820152601960248201527f616c7265616479207265717565737465642f736574746c6564000000000000006044820152606401610890565b604051634b16093560e01b815263ffffffff831660048201525f907f00000000000000000000000000000000000000000000000000000000000000006001600160a01b031690634b16093590602401602060405180830381865afa158015611883573d5f803e3d5ffd5b505050506040513d601f19601f820116820180604052508101906118a79190612ace565b9050804710156118ea5760405162461bcd60e51b815260206004820152600e60248201526d7472656173757279203c2066656560901b6044820152606401610890565b60405163408f719560e11b815263ffffffff841660048201525f906001600160a01b037f0000000000000000000000000000000000000000000000000000000000000000169063811ee32a90849060240160206040518083038185885af1158015611957573d5f803e3d5ffd5b50505050506040513d601f19601f8201168201806040525081019061197c9190612ace565b600184018190555f81815260076020908152604091829020889055815183815263ffffffff88169181019190915290810184905290915085907f87214fc60bee9c8831290ab39a132eec041d8e7fa0ddf7e8e764827376f66d44906060016111e3565b5f838152600660205260408120816119f8828686611e34565b60058301549091506001821b1615159695505050505050565b611a19611e0a565b5f611a23836121f9565b8054909150600160b81b900460ff16158015611a4157506001810154155b611a815760405162461bcd60e51b8152602060048201526011602482015270185b1c9958591e481c995c5d595cdd1959607a1b6044820152606401610890565b604051634b16093560e01b815263ffffffff831660048201525f907f00000000000000000000000000000000000000000000000000000000000000006001600160a01b031690634b16093590602401602060405180830381865afa158015611aeb573d5f803e3d5ffd5b505050506040513d601f19601f82011682018060405250810190611b0f9190612ace565b9050803410156111795760405162461bcd60e51b815260206004820152600b60248201526a66656520746f6f206c6f7760a81b6044820152606401610890565b5f3411611b895760405162461bcd60e51b81526020600482015260086024820152676e6f2076616c756560c01b6044820152606401610890565b60405134815233907fe65e1db0cd30e0dbfef67c35f4134988ec9c79c22a4a2d3862f625bdf14bf22d9060200160405180910390a2565b611bc8611db6565b611bd06123ab565b600381905560025460405163256d573f60e21b815260048101929092526001600160a01b0316906395b55cfc90349060240161092d565b60025460405163cd802c9160e01b8152600481018390525f916001600160a01b03169063cd802c9190602401610f75565b611c40611db6565b61103d816124d5565b611c51611db6565b611c59611e0a565b6001600160a01b038216611c985760405162461bcd60e51b815260206004820152600660248201526562616420746f60d01b6044820152606401610890565b47811115611cd75760405162461bcd60e51b815260206004820152600c60248201526b1a5b9cdd59999a58da595b9d60a21b6044820152606401610890565b5f826001600160a01b0316826040515f6040518083038185875af1925050503d805f8114611d20576040519150601f19603f3d011682016040523d82523d5f602084013e611d25565b606091505b5050905080611d685760405162461bcd60e51b815260206004820152600f60248201526e1dda5d1a191c985dc819985a5b1959608a1b6044820152606401610890565b826001600160a01b03167fd3c78a63982c72daf5284ef7cc1788d2ffbf22574959b9d742f236a59ae7977483604051611da391815260200190565b60405180910390a25061101e6001600455565b5f546001600160a01b03163314611e085760405162461bcd60e51b815260206004820152601660248201527527b7363c9031b0b63630b1363290313c9037bbb732b960511b6044820152606401610890565b565b600260045403611e2d57604051633ee5aeb560e01b815260040160405180910390fd5b6002600455565b82545f9060ff600160a01b9091048116908416108015611e625750835460ff600160a81b9091048116908316105b611e945760405162461bcd60e51b815260206004820152600360248201526237b7b160e91b6044820152606401610890565b835460ff80841691611eb291600160a81b90910481169086166129d0565b611ebc9190612a21565b949350505050565b5f81815260066020526040902080546001600160a01b03163314611efa5760405162461bcd60e51b815260040161089090612a34565b8054600160b81b900460ff168015611f1b57508054600160c01b900460ff16155b611f5b5760405162461bcd60e51b81526020600482015260116024820152701b9bdd081c9958591e4bdcd95d1d1b1959607a1b6044820152606401610890565b5f611f658361095d565b90505f612710611f758282612ae5565b611f839061ffff16846129d0565b611f8d9190612a0e565b835461ffff60b81b1916600160c01b1784555f6003850181905560405191925090339083908381818185875af1925050503d805f8114611fe8576040519150601f19603f3d011682016040523d82523d5f602084013e611fed565b606091505b505090508061202e5760405162461bcd60e51b815260206004820152600d60248201526c1d1c985b9cd9995c8819985a5b609a1b6044820152606401610890565b604051828152339086907f5f040b58ca1b9d6d03d1b59e50b83373851a6b99eb754784360306f96ace92639060200160405180910390a35050505050565b5f82815260076020526040902054801515806120bc57505f6005541180156120bc57505f805260066020527f54cdd369e4e8a8515e52ca72ec816c2101831ad1f18bf44102ed171459c9b4f95483145b6120f65760405162461bcd60e51b815260206004820152600b60248201526a756e6b6e6f776e2072657160a81b6044820152606401610890565b5f8181526006602052604090208054600160b81b900460ff1615801561212557508054600160c01b900460ff16155b61215d5760405162461bcd60e51b815260206004820152600960248201526862616420737461746560b81b6044820152606401610890565b80545f9061217e9060ff600160a81b8204811691600160a01b9004166129d0565b6006830185905582549091506121a19085908390600160b01b900460ff1661257d565b6004830155815460ff60b81b1916600160b81b178255604080518681526020810186905284917f8784741e66e13872f6d1a74b8382d571970b1050c382f9b2e31f14ba4c99c6a0910160405180910390a25050505050565b5f81815260066020526040902080546001600160a01b0316331461222f5760405162461bcd60e51b815260040161089090612a34565b8054600160c01b900460ff16156122725760405162461bcd60e51b81526020600482015260076024820152661cd95d1d1b195960ca1b6044820152606401610890565b919050565b600254604051634b16093560e01b815263ffffffff831660048201525f9182916001600160a01b0390911690634b16093590602401602060405180830381865afa1580156122c7573d5f803e3d5ffd5b505050506040513d601f19601f820116820180604052508101906122eb9190612ace565b9050803410156123305760405162461bcd60e51b815260206004820152601060248201526f092dce6eaccccd2c6d2cadce8408aa8960831b6044820152606401610890565b60025460405163408f719560e11b815263ffffffff851660048201526001600160a01b039091169063811ee32a90349060240160206040518083038185885af115801561237f573d5f803e3d5ffd5b50505050506040513d601f19601f820116820180604052508101906123a49190612ace565b9150915091565b5f6003545f146123fd5760405162461bcd60e51b815260206004820152601a60248201527f537562736372697074696f6e4964206973206e6f74207a65726f0000000000006044820152606401610890565b60025f9054906101000a90046001600160a01b03166001600160a01b031663a21a23e46040518163ffffffff1660e01b81526004016020604051808303815f875af115801561244e573d5f803e3d5ffd5b505050506040513d601f19601f820116820180604052508101906124729190612ace565b600254604051632fb1302360e21b8152600481018390523060248201529192506001600160a01b03169063bec4c08c906044015f604051808303815f87803b1580156124bc575f80fd5b505af11580156124ce573d5f803e3d5ffd5b5050505090565b336001600160a01b0382160361252d5760405162461bcd60e51b815260206004820152601760248201527f43616e6e6f74207472616e7366657220746f2073656c660000000000000000006044820152606401610890565b600180546001600160a01b0319166001600160a01b038381169182179092555f8054604051929316917fed8889f560326eb138920d842192f0eb3dd22b4f139c87a2c57538e05bae12789190a350565b5f6101008311156125bf5760405162461bcd60e51b815260206004820152600c60248201526b6772696420746f6f2062696760a01b6044820152606401610890565b5f836001600160401b038111156125d8576125d8612b00565b604051908082528060200260200182016040528015612601578160200160208202803683370190505b5090505f5b8481101561263e578082828151811061262157612621612a83565b60209081029190910101528061263681612a97565b915050612606565b505f805b8481101561271c575f61266a888461265981612a97565b9550612665858b6129e7565b612726565b6126749083612a21565b905083818151811061268857612688612a83565b60200260200101518483815181106126a2576126a2612a83565b60200260200101518584815181106126bc576126bc612a83565b602002602001018684815181106126d5576126d5612a83565b60200260200101828152508281525050508382815181106126f8576126f8612a83565b60200260200101516001901b8517945050808061271490612a97565b915050612642565b5050509392505050565b5f8082116127605760405162461bcd60e51b8152602060048201526007602482015266072616e676520360cc1b6044820152606401610890565b5f61276c835f19612b14565b612777905f196129e7565b90505f8585604051602001612796929190918252602082015260400190565b60408051601f1981840301815291905280516020909101209050805b8281106127e15750604080516020808201939093528151808203840181529082019091528051910120806127b2565b6127eb8582612b14565b979650505050505050565b6001600160a01b038116811461103d575f80fd5b5f6020828403121561281a575f80fd5b81356115b5816127f6565b5f60208284031215612835575f80fd5b5035919050565b803560ff81168114612272575f80fd5b5f805f6060848603121561285e575f80fd5b8335925061286e6020850161283c565b915061287c6040850161283c565b90509250925092565b5f8060208385031215612896575f80fd5b82356001600160401b03808211156128ac575f80fd5b818501915085601f8301126128bf575f80fd5b8135818111156128cd575f80fd5b8660208260051b85010111156128e1575f80fd5b60209290920196919550909350505050565b5f8060408385031215612904575f80fd5b50508035926020909101359150565b803563ffffffff81168114612272575f80fd5b5f8060408385031215612937575f80fd5b8235915061294760208401612913565b90509250929050565b5f805f60608486031215612962575f80fd5b61296b8461283c565b925061286e6020850161283c565b5f60208284031215612989575f80fd5b6115b582612913565b5f80604083850312156129a3575f80fd5b82356129ae816127f6565b946020939093013593505050565b634e487b7160e01b5f52601160045260245ffd5b8082028115828204841417610fb457610fb46129bc565b81810381811115610fb457610fb46129bc565b634e487b7160e01b5f52601260045260245ffd5b5f82612a1c57612a1c6129fa565b500490565b80820180821115610fb457610fb46129bc565b6020808252600e908201526d1b9bdd081e5bdd5c881c9bdd5b9960921b604082015260600190565b6001600160401b03818116838216019080821115612a7c57612a7c6129bc565b5092915050565b634e487b7160e01b5f52603260045260245ffd5b5f60018201612aa857612aa86129bc565b5060010190565b5f60208284031215612abf575f80fd5b815180151581146115b5575f80fd5b5f60208284031215612ade575f80fd5b5051919050565b61ffff828116828216039080821115612a7c57612a7c6129bc565b634e487b7160e01b5f52604160045260245ffd5b5f82612b2257612b226129fa565b50069056fea264697066735822122070472169aef722a1a47e55abf06b6e2d805d757a85112293233b73bd0ccbc24b64736f6c63430008140033","linkReferences":{}},"methodIdentifiers":{"BASE_MULT_WAD()":"f66524f5","CAP_MULT_WAD()":"47d641b9","HOUSE_FEE_BPS()":"1594b256","MAX_COLS()":"581581a0","MAX_MULT_X100()":"93caa3b1","MAX_ROWS()":"e67953ea","MAX_STAKE()":"c98517c5","ONE()":"c2ee3a08","acceptOwnership()":"79ba5097","cashOut(uint256)":"5c7b79f5","createRound(uint8,uint8,uint8)":"6685166a","createSubscriptionAndFundNative()":"b96dbba7","fund()":"b60d4288","getBalance()":"12065fe0","getRound(uint256)":"8f1327c0","isInFlight(uint256)":"cd802c91","isRevealed(uint256,uint8,uint8)":"9ea330bb","nextId()":"61b8ce8c","openTile(uint256,uint8,uint8)":"27f9d348","owner()":"8da5cb5b","pendingRequestExists(uint256)":"41af6c87","quotePayout(uint256)":"20642998","quoteVrfFee(uint32)":"842674a8","randomnessSender()":"df3fafe8","randomnessSenderProxy()":"475da601","receiveRandomness(uint256,bytes32)":"431ac657","requestSeedDirect(uint256,uint32)":"a26e4f38","requestSeedDirectExact(uint256,uint32)":"62e0120d","requestSeedFromTreasury(uint256,uint32)":"94ade90d","rounds(uint256)":"8c65c81f","setRandomnessSender(address)":"011164a6","setSubId(uint256)":"80980043","subscriptionId()":"09c1ba2e","topUpSubscriptionNative()":"1d2b2afd","transferOwnership(address)":"f2fde38b","updateSubscription(address[])":"36bfffed","withdraw(address,uint256)":"f3fef3a3"},"id":31}